:020000041000EA
:10000000002008205D0100101B0100101D010010E0
:100010001101001011010010110100101101001058
:100020001901001019010010190100101F01001022
:10003000110100101901001021010010230100100E
:100040001101001011010010110100101101001028
:100050001101001011010010110100101101001018
:100060001101001011010010110100101101001008
:1000700011010010110100101DA00020110100103D
:1000800011010010110100101101001011010010E8
:1000900011010010110100101101001011010010D8
:1000A00011010010110100101101001011010010C8
:1000B00011010010110100101101001011010010B8
:1000C00011010010110100101101001011010010A8
:1000D0001101001011010010110100101101001098
:1000E0001101001011010010110100101101001088
:1000F0001101001011010010110100101101001078
:100100001101001011010010110100101101001067
:10011000EFF30580103800BE00BE00BE00BE00BE7A
:1001200000BE00BEF2EB8871F8010010140200104E
:10013000A001001090A31AE7D3DEFFFF42012110B7
:10014000FF0100008CEA0000793512AB4FF000008F
:100150002149086006C881F3088810474FF05040D5
:10016000006810B14FF00000F2E70DA40ECC00299A
:1001700002D000F012F8F9E71849194A002000E00F
:1001800001C19142FCD1174988471749884717494F
:10019000884700BEFDE701C901C29A42FBD3704700
:1001A0001402001010010020B8BA0020BCBB0010DF
:1001B000B8BA0020C0EA0020C4EB001000000820FC
:1001C00000000820C4EB00100010082000100820D8
:1001D000000000007047000008ED00E0C0EA0020C9
:1001E000081C0620B580002049200020AD8000209A
:0801F0003CAA00100100000010
:1001F800D4E10020E0E10020ECE10020F8E100205B
:0C02080004E2002010E200201CE20020B4
:10021400F8B500BF064B0749C91A891048BF013118
:10022400491003D0044B0BB101481847704700BF75
:10023400C0EA0020C0EA00200000000008B5054B19
:100244001BB105490548AFF30080BDE80840FFF73E
:10025400E1BF00BF00000000F04A0120B8BA00204E
:100264000B78002B00F09180F7EE007A07EE102A4D
:10027400B4EEE77AF1EE10FA00F1878000B52DEDC7
:10028400048B8B788C46022B83B055D84849F3EE07
:10029400047A01EBC30393ED017AD3ED006AC7EE50
:1002A400277AB0EE669A17EE901ACDE900C041485D
:1002B40008EE102A06F09AF8DFED3F7A69EE277A05
:1002C400C7EE887A08EE900A17EE900A06F08CF9C9
:1002D400F7EE007A06EE100A78EEA76A77EEC65AB1
:1002E40087EEA67A009A27EE257A5278019BA2B16E
:1002F40065EE885ADFED316A86EE255A76EEC56AD8
:10030400F5EEC06AF1EE10FA07DDB0EE675AE8EEDA
:10031400267AA8EE665AC5EE277A002283ED007A83
:1003240083ED016AC3ED047A9A60DA605A619A61D6
:1003340003B0BDEC048B00BDD1ED016ADFED207A82
:10034400F4EEE76AF1EE10FA91ED027A26D4DFEDCD
:100354001D7AF4EEE76AF1EE10FAB5EEC07A77FE94
:10036400A67AF1EE10FAB0EE679A1ED4F2EE0E7A87
:10037400B4EEE77AF1EE10FAF3EE046A77FE877AC8
:10038400C7EEA67A17EE901A8FE700230360436046
:100394008360C3600361436183617047B5EEC07AD3
:1003A400F1EE10FAB0EE679AE0D500217DE700BFC8
:1003B400F8D8002000002041DB0FC9C0CDAF66395A
:1003C4000000FA430000FA4470B52DED028B0B4691
:1003D400817882B001B30446406807EE900AF5EED6
:1003E400C07AF1EE10FA17D901390E46C9B20229C2
:1003F4000BD8E168DFED9E6A07EE101AB0EEC77AFB
:10040400B4EEE67AF1EE10FA06D407EE102AB5EE51
:10041400407AF1EE10FA1AD1DFED967A0122F7EE66
:10042400006AF0EE675AB0EE677AB0EE676A83F856
:100434002820C3ED006AC3ED017AC3ED025A83EDAF
:10044400037A83ED046A02B0BDEC028B70BD9FEDAC
:100454008A7A67EE877A07EE102AC7EE877A002138
:1004640017EE905A83F828102846019306F0D4FA20
:1004740008EE100A284606F0D2FAA368E16807EEEF
:10048400903A06EE901A9FED7D7A77EEA77A86EE83
:10049400877A88EE275A08EE900A17EE101A7848E1
:1004A4008DED005A05F0A2FF9DED005A04EE900A6E
:1004B400019B042E00F2D080DFE806F0AD7A3D20E7
:1004C4000300F7EE004AF6EE006A78EEA47A35EE01
:1004D400244A67EEA66AC4EE845AB8EE007A34EE73
:1004E400C56A28EE877A66EEA56A67EEE57A27EE96
:1004F400257A26EE256AF0EE665A9AE7F7EE004A68
:10050400F6EE006A74EEE87A35EE244A67EEA66ADF
:10051400C4EE845AB8EE007A34EEC56A28EE877ABF
:1005240066EEA56A67EEA57A27EE257A26EE256A99
:10053400F0EE665A7DE7F7EE003A74EEA36A34EE05
:10054400E37AF0EE665AB0EE666AE8EE875AA8EEF1
:10055400C76AF0EE477AB1EEE44AE8EEA67A34EEE2
:10056400044AA8EEE67AF0EE462AF0EE656AB8EEA2
:10057400003AE4EE056AE4EE455A24EE833AE4EEEA
:10058400052AA4EE456A67EE837A37EE077A66EEAB
:10059400A46A65EEA45A83EEA25A66EE856A67EEF3
:1005A400857A65EE255A25EE077A26EE056A40E738
:1005B400F7EE003A74EEA36A34EEE37AF0EE665A8C
:1005C400B0EE666AE8EEC75AA8EE876AF0EE477A9C
:1005D400B1EEE44AE8EEE67A34EE044AA8EEA67AEE
:1005E400B0EE463AF0EE656A34EEA42AE4EE056A0B
:1005F400E4EE455AF8EE002AA4EE053AA4EE456A64
:1006040067EE827A27EE227A66EEA46A65EEA45A31
:1006140083EE835AC1E7B7EE007A85EE246AF0EEE2
:10062400476A36EE074AF0EE475AF8EE007AE5EEEE
:10063400246AE5EE645A68EEA77A87EE045A37EE28
:10064400466A67EE857A66EE856A65EE855A26EE19
:10065400056AB0EE677AECE69FED066AF7EE006A8B
:10066400B0EE467AF0EE465AF0EE467AE1E600BF86
:100674000AD7233C00000000DB0FC94000002042E1
:10068400000020412DE9F04F4FF4C65293B00021F1
:10069400A6480BF023F82C220021A5480BF01EF8E5
:1006A40000230120F7EE007A4FF0000A9E46A14A8B
:1006B400DFF894C2DFF894B2DFF87082DFF8789242
:1006C400019302926746019C9B4D04EB440105EBA8
:1006D400811189F802E0C1F804C0C1F808B0C1F87A
:1006E4000CA089F812E04F615F46CDF80CB0039A74
:1006F400029BCDF810A0C1F818B0C1F81CA089F86D
:1007040022E08A62049A03F8010B0134C8ED007AEE
:10071400C8ED0C7AC8ED187AC8ED247AC8ED307AA1
:1007240088F8280088F8580088F8880088F8B80005
:1007340088F8E80088F8180101940293C1F824C0ED
:10074400CA6289F832E0CDF80CC0039BC1F834C00A
:10075400C1F83CA0C1F838B089F842E0C1F848B00B
:10076400C1F844C0C1F84CA089F852E04B65049B21
:10077400CDF814B08F65C1F85CA089F862E0CB664F
:10078400059BCDF818A0C1F864C0C1F868B089F819
:1007940072E08B67069BC8ED3C7AC8ED487AC8EDD9
:1007A400547ACB67CDF81CC0CDF820B0CDF824A086
:1007B400C1F874C0C8ED607A079B89F882E0C1F87B
:1007C4008430089B019CC1F88830099B039DC8EDC7
:1007D4006C7AC8ED787AC1F88C3088F8480189F8C9
:1007E40092E088F8780188F8A80188F8D80188F898
:1007F400080209F1C0090B2CC1F898B0C1F894C0E3
:1008040008F51078C1F89CA008F8080C09F81EEC4B
:1008140048ED0C7AC1F8A4C0C1F8A8B0C1F8ACA0E6
:1008240009F80EECC1F8B450C1F8B8B0C1F8BCA0D6
:100834007FF448AF9FED417ADFED417A0AAD05239D
:100844008DED0B7ACDED0C7AAB46AA46A946A846A7
:100854002E46AC462F463B4CCDF828E0CDF834E08C
:100864008DF82A300EAB01930FCD20606160A26039
:10087400E360BBE80F00C4F8C000C4F8C410C4F8B7
:10088400C820C4F8CC30BAE80F00C4F88001C4F81A
:100894008411C4F88821C4F88C31B9E80F00C4F875
:1008A4004002C4F84412C4F84822C4F84C32B8E8F0
:1008B4000F00C4F80003C4F80413C4F80823C4F8F0
:1008C4000C330FCEC4F8C003C4F8C413C4F8C8234F
:1008D400C4F8CC33BCE80F00C4F88004C4F8841412
:1008E400C4F88824C4F88C340FCFC4F84C354FF0C6
:1008F40004038DED0F7ACDED107ACDF838E0CDF804
:1009040044E08DF83A30C4F84005C4F84415C4F8FE
:1009140048250FCEC4F80006C4F80416C4F8082607
:10092400C4F80C3613B0BDE8F08F00BF505F01204F
:100934009C480120405F0120107801200000A04263
:10094400F4FD343F9079012000007A44F4FD343FF3
:10095400944B07EE900AD3ED026A9FED936A67EE1B
:10096400A66A86EE867ABDEEC77A17EE101A4FF0A5
:10097400000C8E48B1F5005F80F800C040F3E080C1
:100984004FF400518A4A11604FF0010CD3ED036A11
:100994009FED856A67EEA66A86EE867ABDEEC77A13
:1009A40017EE101AB1F5005F40F3C3804FF4005105
:1009B40051604FF0010CD3ED046A9FED7B6A67EE42
:1009C400A66A86EE867ABDEEC77A17EE101AB1F5DE
:1009D400005F40F3A7804FF4005191604FF0010C89
:1009E400D3ED056A9FED706A67EEA66A86EE867A95
:1009F400BDEEC77A17EE101AB1F5005F40F38B8095
:100A04004FF40051D1604FF0010CD3ED066A9FED15
:100A1400666A67EEA66A86EE867ABDEEC77A17EE38
:100A2400101AB1F5005F70DD4FF4005111614FF001
:100A3400010CD3ED076A9FED5C6A67EEA66A86EE49
:100A4400867ABDEEC77A17EE101AB1F5005F56DD4F
:100A54004FF4005151614FF0010CD3ED086A9FED42
:100A6400526A67EEA66A86EE867ABDEEC77A17EEFC
:100A7400101AB1F5005F36DD4FF4005191614FF06B
:100A8400010CD3ED096A9FED486A67EEA66A86EE0B
:100A9400867ABDEEC77A17EE101AB1F5005F28DC2E
:100AA40000295ADB82ED077A26D1DFED425ADFEDC9
:100AB4003E6A93ED0A7A85EEA76AA6EE267A67EE79
:100AC400277A87EEA67AFDEEC77A17EE903AB3F549
:100AD400005F60DC002B4FDBC2ED087A51D1BCF122
:100AE400000F4ED17047002934DB82ED067AC8D05E
:100AF400C5E74FF40051D1614FF0010CD5E700294F
:100B040037DB82ED057AA8D0A5E700292BDB82ED3F
:100B1400047A8ED08BE7002928DB82ED037A3FF438
:100B240074AF70E700291BDB82ED027A3FF458AF03
:100B340054E700292CDB82ED017A3FF43CAF38E71F
:100B4400002921DB1A4A82ED007A7FF41DAF4FF0B1
:100B5400000C1BE70021916193E70021D161A4E718
:100B6400002191603CE70021116162E70021D1601E
:100B74004BE70021516170E700231362BCF1000FC1
:100B8400B0D0012303707047094AC2F800C0DEE701
:100B9400002151600FE74FF40053136201230370E7
:100BA400F1E700BF9C48012000007A44295F01203E
:100BB40078480120000000442DE9F04FC24B2DED90
:100BC400088B93ED027A09EE900ADFEDC06A29EEF4
:100BD400877AC7EE267AFDEEE77A17EE901A00249C
:100BE400BB48B1F5005F85B0047040F334824FF424
:100BF4000051B84A1160012493ED037ADFEDB36A22
:100C040029EE877AC7EE267AFDEEE77A17EE901A78
:100C1400B1F5005F40F30F824FF40051516001249D
:100C240093ED047ADFEDA96A29EE877AC7EE267A76
:100C3400FDEEE77A17EE901AB1F5005F40F30382F8
:100C44004FF400519160012493ED057ADFED9F6A22
:100C540029EE877AC7EE267AFDEEE77A17EE901A28
:100C6400B1F5005F40F3DF814FF40051D1600124FE
:100C740093ED067ADFED956A29EE877AC7EE267A38
:100C8400FDEEE77A17EE901AB1F5005F40F3BB81F1
:100C94004FF400511161012493ED077ADFED8B6A63
:100CA40029EE877AC7EE267AFDEEE77A17EE901AD8
:100CB400B1F5005F40F39F814FF40051516101246D
:100CC40093ED087ADFED816A29EE877AC7EE267AFA
:100CD400FDEEE77A17EE901AB1F5005F40F39B81C1
:100CE4004FF400519161012493ED097ADFED776AA5
:100CF40029EE877AC7EE267AFDEEE77A17EE901A88
:100D0400B1F5005F00F372810029C0F2ED82C2EDFB
:100D1400077A40F06E819FED706ADFED6C6AD3ED67
:100D24000A7A86EE297AE7EE267A67EEA97A87EEC2
:100D3400A67AFDEEC77A17EE903AB3F5005F00F39A
:100D4400D380002BC0F2D682C2ED087A40F0CF8067
:100D5400002C40F0CC80F5EE409AF1EE10FA40F011
:100D6400CE8001204FF07E5400225C4D5C4E5D4BE2
:100D740005F10B0715F8011B002900F099800129E2
:100D84001C605A609A60DA601A6183F8280000F0E7
:100D94008F8002291C635A639A63DA631A6483F8A6
:100DA400580000F0858003291C665A669A66DA6644
:100DB4001A6783F888007BD00429C3F89040C3F8ED
:100DC4009420C3F89820C3F89C20C3F8A02083F88B
:100DD400B8006DD00529C3F8C040C3F8C420C3F8D7
:100DE400C820C3F8CC20C3F8D02083F8E8005FD033
:100DF4000629C3F8F040C3F8F420C3F8F820C3F878
:100E0400FC20C3F8002183F8180151D00729C3F846
:100E14002041C3F82421C3F82821C3F82C21C3F8A6
:100E2400302183F8480143D00829C3F85041C3F85E
:100E34005421C3F85821C3F85C21C3F8602183F816
:100E4400780135D00929C3F88041C3F88421C3F857
:100E54008821C3F88C21C3F8902183F8A80127D0F6
:100E64000A29C3F8B041C3F8B421C3F8B821C3F8C0
:100E7400BC21C3F8C02183F8D80119D00B29C3F8C9
:100E8400E041C3F8E421C3F8E821C3F8EC21C3F836
:100E9400F02183F808020BD0C3F81042C3F81422DF
:100EA400C3F81822C3F81C22C3F8202283F838029E
:100EB400AF4206F8010B03F510737FF45BAF05B086
:100EC400BDEC088BBDE8F08F9C48012000007A44FB
:100ED400295F01207848012000000044C8E2002076
:100EE400405F0120505F01204FF400531362F5EE80
:100EF400409A0123F1EE10FA03703FF432AFDFF8A9
:100F040088E3DFF888B31EF8019B4FF000085846C9
:100F1400DFEDD7AA9FEDD7BADFEDDE8ADFF870C325
:100F2400B9F1000F00F0E6800127CA4600259FEDC5
:100F3400D2AA8146D14CCDE901EC08EBC80304EBFD
:100F44008314039008FA07F299F80260002E00F067
:100F5400AE8102EB080105EB81010BEB01114B683B
:100F640007EE903AF5EEC07AF1EE10FA40F29F8166
:100F7400013EF0B2022840F28F8167EE8B7A0021A5
:100F840087EEA98A84F8281018EE100A009205F05A
:100F940043FD0BEE900A18EE100A05F040FD009A8E
:100FA40009EE100A02EB080105EB81010BEB0111BC
:100FB4008B68C96807EE903A07EE101A87EE0A7A32
:100FC40077EEA77A17EE101AAD488BEEA78A05F0D4
:100FD4000DFA009A07EE100A042E00F29081DFE861
:100FE40016F02601E700A8008B0044004FF40051DE
:100FF400D16101248FE60029C0F26781C2ED057A30
:101004003FF45EAE5BE60029C0F27181C2ED047A62
:101014003FF442AE3FE60029C0F25A81C2ED067A9F
:101024003FF462AE5FE60029C0F25881C2ED037A54
:101034003FF41EAE1BE60029C0F24D81C2ED017AD9
:101044003FF4EEADEBE50029C0F24B81C2ED027A2C
:101054003FF4FAADF7E500298A4AC0F24E81C2EDA9
:10106400007A7FF4C8AD0024C6E5B7EE007AF6EE48
:10107400006A39EE076A78EE074A66EE266AC7EE1A
:10108400245AB8EE005A77EE487A29EE055A66EEED
:10109400A56A26EE656A25EE257A67EEA57AF0EE56
:1010A400665A94F828100135AA45C4ED006A84ED07
:1010B400016AC4ED025A84ED037AC4ED047A07EAA6
:1010C400010709F1100904F130047FF43DAFDDE9B3
:1010D40001EC039808F10108B8F10B0F0CF8017B3F
:1010E40000F1C0003FF4EBAE1EF8019BB9F1000F14
:1010F4007FF41AAF0127EDE7B7EE005AF6EE006A67
:1011040035EE496A78EE054AF8EE007AC5EE245ABF
:1011140066EE266A29EE277A66EEA56A75EE487AA7
:1011240026EE256A27EE257A67EEA57AF0EE665A52
:10113400B7E7F7EE003A37EE235A77EE636AF0EE3C
:10114400457AB0EE454AE9EE267AA9EE664AF1EE12
:10115400C74AB0EE666AE9EE456A74EEA44AF0EE58
:10116400665AF0EE442AF0EE676AB8EE003AA9EE49
:10117400056A27EE033AE8EE647AE8EE246AE8EEBC
:10118400242A35EEA55A66EE876A67EE875A26EE5C
:10119400036AC3EEA27AA8EE644A66EEA76A26EE54
:1011A400276A67EEA55A27EE857A64EE277A78E7F0
:1011B400F7EE003A37EE234A77EE636AF0EE447AAC
:1011C400F0EE444AE9EE667AE9EE264AF1EEC75AB1
:1011D400B0EE666AE9EE046A75EEA55AA9EE446AB1
:1011E400B0EE665AB0EE644AF0EE676A77EE072A0C
:1011F400E8EE256AE8EE657AA8EE254AB8EE003AEC
:10120400E8EE654A66EE876A67EE875A26EE226A3A
:10121400C3EE847A25EE035A67EEA66A27EE866A41
:1012240067EEA55A27EE857A64EEA77A39E7B7EE1A
:10123400005AC8EE077AB8EE006AF0EE456A77EE17
:10124400854AF0EE455AE7EE086AE7EE485A29EE79
:10125400066A35EE677AC5EE247A27EE866A67EE6B
:10126400A66A65EEA75A67EE277AB0EE467A18E7C3
:101274000AD7233CDB0FC94000002042505F012005
:101284000000204178480120C8E2002010780120A5
:10129400405F012000000000CB6807EE103AB0EE7A
:1012A400C77AB4EEEA7AF1EE10FA7FF566AE012160
:1012B400F7EE006AB0EE686AF0EE685AB0EE687A4B
:1012C400F0EE687A84F82810EBE600215161F7E427
:1012D4000021916108E500215160A1E40021D16061
:1012E400C6E400219160AFE40021D16113E500213F
:1012F4001161D1E4002313622AE51460B3E65FEDC3
:101304001B7AF7EE006AB0EE677AF0EE675AB0EE39
:10131400676AC6E62DE9F84F684D40F6AC12002125
:1013240028460AF0DBF9072365484FF4046265494F
:10133400286005F10C00AB800AF03EFA624BDFF83E
:10134400C4811968614B05F64C021B7805F65407F5
:10135400116085F85038B8E80F000FC7B8E80F00DF
:10136400DFF8A4E10FC798E8070076464FF0000CB9
:10137400DFF898A1564B05F5086B87E8070093E85A
:1013840007008BE807009AF8003005F6AC0485F8EE
:101394008C389AF80130DFF8789185F88D389AF80E
:1013A400023085F88E384B4B1B7885F890384A4BC1
:1013B4001B6844F8183C494B1B6844F8143C99F8E2
:1013C400003085F89C3899F8023085F89D3899F8F2
:1013D400013085F89E38D9F8043044F80C3CD9F82B
:1013E400083044F8083C36F80C2B0CEB4C0324F87A
:1013F400042C0EEB83035B680CF1010CBCF1090FA8
:1014040044F8083BEFD100233548364930F80C4BFB
:1014140003EB430221F8044C0EEB8202126F0133FA
:10142400092B41F8082BF1D100222F482F4B30F81B
:10143400144B02EB82011C800EEB8101D1F8DC40DD
:1014440001325C60D1F8E410092A03F10C0343F87B
:10145400041CECD14FF0FF32254B264E18681B7943
:10146400C5F8A40924483371A6F69914073608214F
:1014740014F8013F5A4042F300030340013983EA60
:101484005202F8D1A642F2D1D243AA60EFF31084FB
:1014940072B64FF4805119480BF010FF4FF42062DC
:1014A400064916480BF060FF84F31088144A044B75
:1014B4001068C01A18BF0120BDE8F88F1455012028
:1014C4003150534410780120BC4A01202C5F012084
:1014D400C8480120335F012024E3002020E30020DA
:1014E400DC220120085E0120482301204C5E0120FB
:1014F40000E30020B85E01202083B8ED00F03F0037
:1015040000F03F109C48012070220120D4480120A3
:1015140014E30020CD4BCE4A1968914240F0528129
:101524009B88072B00F24E814FF0FF322DE9F043E8
:10153400C848C949C94D83B0082403785A4042F3C6
:1015440000030B40013C83EA5202F8D10130A84267
:10155400F2D1D243BD4B9B68934240F035814FF4A6
:101564000462BC49BE480AF027F9BE4ABE4B92ED5C
:10157400007AB5EE407AF1EE10FA83ED007A40F08D
:1015840027814FF08053B94AB04E136096F8503813
:10159400B74A003B18BF0123B64CB74D13700FCDAB
:1015A4000FC40FCD0FC495E8070084E80700B38883
:1015B400012B019340F2A4810023DFEDB05A9FED8B
:1015C400B06AB04CB048B14903F5087206EB820228
:1015D40092ED007AB5EE407AF1EE10FA04EB830254
:1015E40082ED007A00F00D82B4EEE57AF1EE10FAA5
:1015F40000F10A82F3EE046AB4EEE67AF1EE10FA30
:101604009FEDA35A36FE877A27EE057AF7EE007A25
:1016140027EE075A77EE277AF6EE003A67EE056A68
:101624009FED9C4AE5EE237ADFED9B4A27EE267A6E
:10163400E6EE847AE7EE247AF5EEC07AF1EE10FA5B
:101644004CBF01220022002A47FE867AB0EE677A58
:10165400BEEEE87A17EE102A40F82320F21892F82A
:101664008C28003A18BF0122CA540133032BABD192
:10167400019F022F00F0448196F890380121003B2D
:1016840018BF0123854FDFF838C2854D8CF8003030
:101694003B68844C2B60019F23688348834A032F53
:1016A4000360117000F02C8196F89C28804B003A5E
:1016B40018BF01221A7096F89E2896F89D68003A81
:1016C40018BF01227B4D9E70A4685A707A482A681C
:1016D400042F5C609A60017000F01281DFF8E4E18D
:1016E4004FF000097446F0469FED645ADFED645AEA
:1016F400DFED722A9FED663ADFED663A4FF06C0C2F
:101704009FED654A404600230CFB09FC4F4E09EB54
:10171400C90538E0B4EEC57AF1EE10FA00F1D480D0
:10172400F3EE046AB4EEE67AF1EE10FA36FE877A46
:1017340027EE037AF7EE007A27EE076A77EE277A28
:10174400F6EE004A67EE066AE6EE247A27EE267A7B
:10175400E6EEA37AE7EE047AF5EEC07AF1EE10FA3B
:101764004CBF01210021002947FEA57A17EE901AEB
:101774001A440CEB820201332244092B00F10C00C1
:10178400916000F0C180EA1806EBC20292F8A81832
:1017940002F6AC07017092F8A92803EB43014270EA
:1017A40097ED007AB5EE407A17EE107AF1EE10FA62
:1017B4000CEB810121444FEA43024F60AAD1F7EEBA
:1017C400007AD3E702207047032003B0BDE8F0831A
:1017D400DFED2A7AB4EEE77AF1EE10FA00F118811F
:1017E400F3EE046AB4EEE67AF1EE10FA9FED286A9D
:1017F40036FE877A27EE067AF7EE007A27EE076A36
:1018040077EE277AF6EE004A67EE066A9FED215AD4
:10181400E6EE247ADFED205A27EE267AE6EE857A84
:10182400E7EE257AF5EEC07AF1EE10FA4CBF01240A
:1018340000249FED137A002C47FE877AB0EE677A76
:10184400BEEEC27A17EE103A9DE600BF00F03F10DC
:10185400315053440CF03F102083B8EDACF93F10E5
:10186400107801204CF83F10BC4A012044E30020CA
:101874002C5F01209C48012054F83F10000070C2E6
:1018840000000000C848012034E30020D4480120AF
:10189400E3C8EB3DADAA2A3EB4AA2A3D94F83F1012
:1018A40024E3002098F83F1020E30020345F012057
:1018B40014E30020A4F83F10305F0120788B6742C6
:1018C400335F012070220120F0EE627A00214AE7A2
:1018D400019B052B14D000234F495048504CC2188B
:1018E40092F8A4291D2A05D80C2AA2F1170501D0C3
:1018F400022D00D8E25C0133052B01F8012BEED157
:10190400002003B0BDE8F08309F10103022B4FF07E
:10191400010908F16C087FF4F1AE0023B7EE002A48
:101924009FED405ADFED405ADFED402A9FED403AEB
:10193400DFED403A9FED404A404D384E36E0F4EE3C
:10194400C57AF1EE10FA58D4B3EE047AF4EEC77AFD
:10195400F1EE10FA37FE277A27EE037AF6EE004A04
:1019640027EE076A77EE027A67EE066AE6EE247AD5
:1019740027EE267AE6EEA37AE7EE047AF5EEC07A4D
:10198400F1EE10FA4CBF01220022002A47FEA57A8C
:1019940017EE902A1944013304EB8101092B45F811
:1019A400047B0EF1140EC1F8E02091D003EB430246
:1019B40006EB820292F8381903EB83008EF8D810F4
:1019C40092F8391904EB80008EF8D91002F63C1114
:1019D400D1ED007AF5EE407A17EE907AF1EE10FA36
:1019E40002F51462C0F8DC7017684FEA8301C0F88E
:1019F400E470A4D1F7EE007ACAE7F0EE627A00222E
:101A0400C3E74FF4004227E60022DFED087A1AE626
:101A1400DFED067A0DE700BF00E3002000F03F1081
:101A240010D90020000070C200000000788B6742CB
:101A3400E3C8EB3DADAA2A3EB4AA2A3DA44801203E
:101A4400F8B5FEF71FFE4FF0805700230020304A00
:101A5400304E314930604FF4004E0F6013701A4617
:101A6400DFF8ECC02D4D2E4C0CEB8301086045F8DB
:101A740023E0E2540133032BF6D10125DFF8D4E04F
:101A84002849294E0A70DFF8D0C0C6F800E0274E76
:101A9400274BC6F800C02748274E284C35702849E4
:101AA4001A705D709A705860264899604FF4C67237
:101AB40000210570204609F011FE4FF07E510A46C0
:101AC400C4F8F410A160C4F88010022321464FF03A
:101AD400000C257084F8785084F8D850C4F8E020BD
:101AE40084F8EC504FF07E5003EB8302013304EB97
:101AF4008202092B81F800C101F11401C2F8E0004F
:101B0400F0D10A22104B11491A711960F8BD00BFB7
:101B14002C5F0120BC4A012044E3002034E3002070
:101B2400D4480120335F012024E3002020E3002077
:101B340014E3002000002F44345F012070220120B0
:101B440000009040305F012000E3002016070809E0
:101B5400C84801200000A6420000C8422DE9F84F01
:101B6400B7EE007A2DED108B0AEE102AB4EEC7AA58
:101B7400F1EE10FA07EE900A0CEE101A01D59FED63
:101B8400E7AADFEDE7DAF4EEED7AF1EE10FA07D426
:101B9400DFEDE4DAF4EEED7AF1EE10FA7DFEA7DA89
:101BA4004FF43764DFF8C0A3DFF8C0939AF80080DD
:101BB4006FF03B06C8F101085FFA88F80025DFEDF5
:101BC400DABADFEDDA9A9FEDDA9A9FEDDABADFED51
:101BD400DAAA04FB089417E001224FF07E536560F3
:101BE400A560E56025612275236001224FF07E53D4
:101BF40016449642E56125626562A56284F82C204C
:101C0400A36100F07F81303407EE106AB8EEC77A22
:101C1400F3EE047A37EE2D7AF4EEC77AF1EE10FA89
:101C240077FE877AF4EEED7AF1EE10FA3DFEA78A9C
:101C3400F4EEC8DAF1EE10FACED96DEEAB7A17EE07
:101C4400907ABE48394604F0D1FB07EE900AB0EE14
:101C54004B7A77EEE97AA7EE897A17EE100A04F048
:101C6400B7FB28EE2B7ADFEDB68A17EE10BA07EE33
:101C7400900AF0EE68CA5946B048E7EEAACA04F0E2
:101C8400B5FB07EE900AB0EE4B7A77EEE97AA7EE51
:101C9400897A17EE100A04F09BFBDFEDA27A07EEB7
:101CA400100A3946A548CCEE27EAE7EE2A8A04F062
:101CB4009DFBDFEDA4FA07EE900AB0EE6F7A77EEA3
:101CC400E97A9FEDA1DAA7EE897A7CEE8DCA78EEE7
:101CD4008D8A17EE100A04F07BFB78EEEC8ADFEDB8
:101CE4009BCA07EE900A9FED9AFAB0EE6CEA594649
:101CF4009248A7EE8FEA04F079FB07EE900A77EE9C
:101D0400E97AE7EE89FA1FEE900A04F061FB38EEF7
:101D14006D8A06EE900A78EEC88AE6EE8FCA68EEFF
:101D2400AE8A3EEE0DEA7CEE8DCADFED8A7AB0EE25
:101D3400E87A7CEECECAB4EEE77A7CEEC8CAF1EE5D
:101D440010FA6EEEACEAF0EEEECA00F11381DFEDAC
:101D5400827AC7EE8A7A002317EE907A2375384682
:101D640004F05AFE0EEE100A384604F058FE9FEDB9
:101D74006C7A88EE877ADFED797A0DEE100A17EE29
:101D8400101A6E48CEEE278A04F030FBB7EE004AF4
:101D940006EE900A76EE844A76EEC47AB0EE647A61
:101DA400F0EE645AADEE677AEDEE275AB1EEE66ACC
:101DB400B0EE675A36EE066AADEE645AEDEE247A5A
:101DC400F0EE653AF0EE474A76EEA62AE8EE864A49
:101DD400A8EEC67AE8EE863AB8EE003AE8EEC65ABD
:101DE40027EE267A24EEA66A25EE225AC4EE234A6A
:101DF40067EE837A26EE246A65EE246A27EE247A57
:101E040067EEA47A65EEA45A9FED525AF4EEC5CA61
:101E1400F1EE10FA84ED006AC4ED016A84ED027AF1
:101E2400C4ED037AC4ED045A3FF5DFAEDFED4C7A1E
:101E3400C7EE8A7A002317EE907A84F82C3038465D
:101E440004F0EAFD0CEE900A384604F0E8FD9FED3C
:101E5400347A8EEE877ADFED417A08EE900A17EE37
:101E6400101A36488CEEA78A04F0C0FAB7EE004A7E
:101E740005EE900A75EE844A75EEC47AB0EE647A83
:101E8400B0EE646AA8EEA77AA8EEE76AF1EEE56A16
:101E9400B0EE675A76EEA66AA8EEA45AE8EEE47AA3
:101EA400B0EE463AF0EE474AF8EE003AE8EE264A3B
:101EB40065EEA33AA8EE667AA8EE263AA8EE666A1C
:101EC40027EE257A64EEA56A25EE235AC4EE034A6A
:101ED40077EEA77A66EEA45A27EE247A65EE246A92
:101EE40067EEA47A26EE246A0136012EC4ED065A62
:101EF400C4ED076A84ED087AC4ED097A84ED0A6AB0
:101F04007FF481AE4FF4376303FB0893154A8AF8D4
:101F140000801360BDEC108BBDE8F88F00803B4758
:101F2400000020420000C842CDCCCC3C3333933F68
:101F34001479923B3EEAA441682FB9410000204144
:101F4400CDCCA0C234AE5A3C0000BC4266668EC101
:101F5400EFE304420AD7233C63149D44F4FDB43FE9
:101F64001D431347E84A0120285F01205000062042
:101F7400000000005FED026A0123B7EE006AB0EED4
:101F8400667AF0EE667AF0EE665A23753CE700BF97
:101F940030B5192087B002F04FFA19234FF001022F
:101FA40042EC44300B2003F021FA0A2003F09CF8A1
:101FB400534805AB04AA03A903F092F9002840F0A2
:101FC4009680504805AB04AA03A903F089F90028B8
:101FD40040F08D80172002F02FFA17234FF00102F2
:101FE40042EC443042EC4030474B1121186806F073
:101FF400FBFA4FF48852454B454D1A6002F0AAF89B
:1020040029684FF47A7200238803890C08F076FE5D
:10201400404B414A18601B681360FFF77BFA0028A5
:102024002DD03E4B3E4A106819683E4AFFF796FD94
:102034003D4B1B7833B13D4B1B681BB1A88800B2E4
:1020440002F05CF83A4B187900F052FA394B93F8E5
:102054007821002A40D103F1780193F80021143348
:10206400002A4AD18B42F8D1334B00201A7000F079
:10207400FDF9324807B0BDE8304006F079BAEFF315
:10208400108472B62748FEF797FD2648FEF760FCD9
:1020940084F3108801232A4C2A4A2068A0B192F8BC
:1020A40000C0C1798C450FD00021CDE9002306F092
:1020B40049FD009A2068117806F0EAFC01212068A5
:1020C40006F040FDDDE900230133042B04F1040490
:1020D40002F10102E1D1A4E70120174B187000F0CE
:1020E400C5F9164807B0BDE8304006F041BA039878
:1020F400DDE9041203F0BEF86CE70222B4E700BF86
:1021040000882A1180D1F00864E300200080064092
:102114004CE30020EC4A0120B04A012020E30020D7
:1021240024E3002000803B47335F0120E84A01207C
:1021340000E30020702201202E5F012001260020F0
:102144003417062001E300202DE9F04F2DED028B1A
:10215400192089B002F070F919234FF0010242EC02
:10216400443042EC4030FFF713FF01214FF4FA50A2
:1021740003F070F99FED9C8BDFF8DC92DFF8DC82D2
:102184009B4F9C4D03F05CF999F8003003F0FF0479
:102194000BBB98F80030002B40F084803B78002B78
:1021A40040F0CF80944B1B78002B40F0ED802B68DF
:1021B4000133B3F57A7F2B60E4D300232B604FF017
:1021C400007320EE103003F03BF999F8003003F06F
:1021D400FF04002BDDD0894B0DF1100E18685968EF
:1021E4009A68DB68F446AEE80F009DF810E09DF8AD
:1021F40011300EEB4E0203EB8203814A4FF0000ACA
:102204001646AEF1040E4FEA031B89F800A0BEF196
:10221400050F02EB031ABCE80F0046F80B00CAF8DE
:102224000410CAF80820CAF80C3004D8754B1B787F
:10223400022B00F0C180EFF3108A72B69DF81130C2
:10224400714E03EB43019DF81030090103EBC30306
:1022540001EB83116D4B31441A6804A807EE902AF0
:10226400F8EE677A17EE902AFEF7AEF89DF81000A4
:10227400674B195C69B100EBC003002206EB8313C2
:1022840001E08A4205D093F8284001323033002C13
:10229400F7D1604B1C548AF3108898F80030002B57
:1022A4003FF47CAF4BF6803300225B490C6888F81E
:1022B40000209C4200F08D80584B9C4200F08380AB
:1022C4004AF644431C46DFF898A1DFF898B101931D
:1022D400534B05201C6002F0C7FF50450ED00B2065
:1022E40003F084F86420002102F0CEFE504604ABD3
:1022F40003AA02A902F0F4FF00286ED10023DDED49
:10230400017A484AF8EEE77A1370474B474983ED60
:10231400008B474B17EE900A1A46C3F800B01B68AF
:102324000B601368434A1360FEF746FC0123324AEC
:1023340020463B70137000F09FF83B78002B3FF46D
:1023440031AF00233B703C4B304C18683B4B196851
:10235400226807EE902AF8EE677A17EE902AFFF7C4
:10236400FDFB374B1B78002B3FF41CAF354B1B6830
:10237400002B3FF417AFA08800B201F0BFFE1E4B44
:102384001B78002B3FF413AF00231B4A2E49137014
:102394001E4B2E481A6807EE902AF8EE677A17EE5D
:1023A400902AFDF75DFF284B294A1B7883F001032F
:1023B4001370FCE653781BB9264A1378002BF9D125
:1023C400BFF35F8F37E74FF4C01B0194DFF898A089
:1023D4007EE74FF4402B0194F8E70298DDE90312FD
:1023E40002F048FF8AE700BF000000000000000080
:1023F400345F0120E44A0120305F01205C1706208D
:10240400107801202E5F0120505F01204CE3002052
:10241400C8E20020405F012048E30020007701006B
:1024240008E300203A5F012008240120B04A01207B
:10243400EC4A0120B44A012024E3002020E30020D8
:10244400335F0120E84A012014E3002040170620EE
:1024540010E3002008490120315F0120385F01208A
:10246400C079C50F66060B0000882A11014B18704D
:1024740040BF7047355F012010B5044682B0052087
:1024840002F0F2FE230207EE103A06EE900AB8EECE
:10249400477AF8EE666A9FED136AC6EE877A77EE9E
:1024A400867ABCEEE77A17EE103A9AB2BAB107EE22
:1024B400102AB8EE477ADFED0C6A77EEC77A67EE3A
:1024C400A67AFCEEE77ACDED017A9DF804301B0282
:1024D400064943EA0243C1F8C83002B010BD1346AE
:1024E400F6E700BF0000003B0000804300003050CE
:1024F4002DE9F047DFF8EC80324D334C8AB04FF4CD
:10250400005288F80000AA21284609F0E7F820467E
:102514002E4906F0B5FCDFF8D0904FEA003C4CEAB7
:10252400C01C0027C9F800004FF440234FF480304A
:102534004FF4F83198F800E0CDE90437CDE9020111
:102544000EF01F060DF1180A02AB46F480160FCBED
:102554008AE80F00099601261D4B70460721CDF825
:102564001CC0089301F04AFF98F80020334639460E
:102574002046009606F00CFD3946D9F80020534653
:10258400204606F04BFD4BF68030FFF775FF2368BD
:1025940030463343236006F0B5FB4FF0FF340D495A
:1025A4000D4B0E4A01EA403118600A4383010C497D
:1025B40003F1A0431D6059609C60DA600AB0BDE875
:1025C400F08700BF000001200000305018D900201F
:1025D40000000E40FFFF01FCDCE20020190D10009A
:1025E40010003050D8E20020184B012001222DE9C0
:1025F400F0414FF0A044054628498AB00B6823F007
:1026040001030B60264B19688A4004EB8113C4F85C
:102614006424DC6814F08064FBD1224E1F213078DE
:1026240001F0ECFE337844EC44300721284601F0F5
:10263400E5FE01232A4621460093184806F0A8FC2B
:102644004FF480324FF4F8334FF44021CDE90223A4
:10265400154A0491D2F800C005940DF1180802AB94
:102664000FCB88E80F00114B4FEA0C3705F01F0E13
:1026740047EACC174EF4801E624621460893074869
:102684004346CDF824E0079706F0C8FC4BF68030AB
:10269400FFF7F2FE35700AB0BDE8F081000030505B
:1026A400DCE20020D8E20020184B012000000E409C
:1026B4000F4ADFF848C013789CF800C00133DBB23E
:1026C4009C4510D082B092F800C0009009488DF863
:1026D400041000EBCC0CDDE900018CE8030013705E
:1026E40040BF02B07047044A136801331360704757
:1026F400365F01201C4B01201C530120375F012051
:102704009FED928A2DE980488FB0914B1B78012B65
:10271400DAB20BD0022A00F03E8200238D4AD37233
:1027240020BF8B4B1B78012BDAB2F3D14FF0000A98
:10273400874A554612785346012AD046D346D14695
:10274400CDE906AACDF80CA0CDF804A0CDF810A0D0
:10275400CDF808A0CDF820A0CDF824A000F05C812D
:10276400002D00F057837C490A78002A40F0D0817C
:102774000A781AB1C5F5806200250992774A14686F
:10278400002B00F05B81A00100F1A040744A0368B3
:102794009B1AA8EB9302C2F30A01B1F5806F4FEACA
:1027A400930340F287814FF0000B6E4A03F5807368
:1027B400C3F30A081368D946013313606A4B1A78C5
:1027C4006A4B1B789A4200F09F80684A13786849E4
:1027D40001EBC30393E803001378CDE90C01013343
:1027E40013700346634A926A002D00F077815E4BB2
:1027F4005E491B78013D0B70089B03FB05F6B6127E
:1028040006F50046002D00F08981A00100F1A040EA
:1028140002E0B1F5887F0FD3514903685B1AA8EB36
:102824009301C1F30A01B1F5806F4FEA9303F0D924
:1028340003F58073C3F30A0808234FF0004E44469F
:1028440005934D4BCDE90A52A6F57F4C1968ACF1BE
:10285400FF0C43F6A25081EA413181EA5141CAEBAF
:102864004A1A81EA41114AF3571AC1F308070AEBDD
:10287400AB3AFF3FA7EB0A0700FB07F3029A3F4876
:1028840047F62B3800FB023343F6A2500025049A86
:1028940000FB0233019A3A4808FB0233039A03947B
:1028A40000FB02302A460BE064464FF6FF73A14456
:1028B4000132A9EB0303202A45EA08059B440DD005
:1028C4001BEBA0332EFA02F8EED534460023A144C4
:1028D4000132A9EB0303202A9B44F1D1039C204B32
:1028E40043F82450631CC3F30A04029B0493019B22
:1028F4000393059B013B059344D0831302970193F3
:10290400A7E720BF154B1C68A10101F1A0410EE00F
:10291400134A0B689B1AA8EB9303C3F30A03A3F5AA
:102924008072B2F5407F08D8B3F5C07FE9D80E4B6A
:102934001A780E4B1B789A42EAD00B4B0B491A7843
:102944000B789A4200F080820A463FE700FEFF4679
:102954002E5F0120C04A0120355F0120DCE2002007
:1029640000000120104B0120365F0120375F012059
:102974001C4B012000000B40D4E20020BC84FFFF6C
:1029840024C3FFFF9C4BA046DDE90A5219609B4B10
:102994009B491B689B0103F1A0431B685B1AA4EBD2
:1029A400930313F4FC6F03D196490B6801330B6056
:1029B400954B07999B6A01319B1A069A2F29134458
:1029C4000791A9EB2949ABEB2B4B069315D91A2296
:1029D40002FB03F2B2F5C84F28BF4FF4C8420021EE
:1029E4008A4C069123680791A3EBD30303EBD2032C
:1029F4002360874A80331B0AD372019B854A039361
:102A04001278029B012A04934FEAA033CDE90137DF
:102A14004FF001037FF4A4AE7F4A1278002A00F03D
:102A240099807D4A1278002A3FF4A8AE002D7FF4E5
:102A3400A1AE724A1468002B7FF4A5AE4FF4005285
:102A4400AA216F4808F04AFE002082464FF0FF3169
:102A5400724B734A03EA44331A436C4B684E186052
:102A6400704B71481B78CDE906AA03706F48704F0C
:102A74000368CDF80CA043F00103CDF804A0CDF811
:102A840010A0CDF808A0CDF820A0CDF824A00360B4
:102A9400A00100F1A0431E605F609960DA601B68CA
:102AA40055469B1B9B0803F58073D346D146C3F35D
:102AB4000A0869E65B4B19785B4B1B7899427FF4F3
:102AC40084AE12F4E0637FF41FAF5A490A680132FE
:102AD4000A604D4A926A002D7FF489AE9913564BD1
:102AE4009942B8BF194647F23C339942A8BF1946E8
:102AF4000B4608910999B1F5806F05D201FB03F3E8
:102B04009B1208934B1C0993089B03F5004693E61C
:102B1400414A1278002A7FF42DAE2FE601234FF0AC
:102B2400A0424248A340016821F00101016002EB88
:102B34008410C2F86434C36813F08063FBD1344A50
:102B4400D372344B1B78012B00F03E810023304AB2
:102B5400D372DAE5002DDBD193B12E4B1B78012B18
:102B640000F04B812C4A1378002B40F03981127805
:102B740002F0FF03002A00F03A814FF48065F9E582
:102B840020BF244A1278012AE0D1234A1278002A6D
:102B9400F6D0002545E700231E4A284912780B7019
:102BA4002749022A0B6006D0D0E71A4B1B78022B68
:102BB4007FF4ABAD20BF234B1B78002BF5D0BFF3C4
:102BC4005F8F02241F4A204FD2F804C0D2F8089025
:102BD400D2ED038A0C4A0CF5C063926AB7EE009AF0
:102BE4001E46BB463D46CDE902C3DFF86080019234
:102BF40009FA04FA4DE000BFD4E20020DCE2002030
:102C0400000001200C4B012000000B40144B01205C
:102C1400C04A01202E5F0120355F0120FFFF01FC27
:102C2400190D1000365F0120375F0120000030507D
:102C34001000305020530120C48CFFFF2D5F012071
:102C440074480120084901207022012050680120A5
:102C54009F4B1B5D5BB304EB84030BEB8303D3F843
:102C6400E03007EE903A68EEA77AF5EE407AF1EE9E
:102C740010FA16D0F4EE497AF1EE10FA40F0E6803C
:102C84000134082C05F1140506F5407608F5107892
:102C940019D095F80031002BF2D095F80131002BB2
:102CA400D6D052460021304608F018FDE8E7A31CB0
:102CB400DBB24A463146404609F030F895F8013116
:102CC400002BC8D0EDE7834ADDE902C3117800295F
:102CD40040F0CC80B7EE009AFFEE008A4E461D46C7
:102CE4007D4C54F8040F60B397F800311BB997F882
:102CF400141100295ED026B301462B4605F5407019
:102D040001EB0A02B3EC017AF0EC017A87FE497A0E
:102D1400C7FEC97A87FE287AC7FEA87A27EE087A02
:102D240067EE887ABDEEC77AFDEEE77A17EE10CA31
:102D3400A1F800C017EE90CA04318A4221F802CCEF
:102D4400E0D1664B2837BB4205F5C065C9D1644B59
:102D5400644A1B78906A002B72D0634B634D1968E8
:102D6400019BA3EB010AC21ABAF5FA6F8CBF114694
:102D7400411A2B6851B14FF4C84404FB02F2B2FB70
:102D8400F1F2A3EBD30303EBD2032B60584A803355
:102D94001B0AD372544B574A186000231370BFF3B5
:102DA4005F8F0123537040BF534B1B78022B3FF4BA
:102DB40002AFCBE6524608F091FC484B2837BB42A1
:102DC40005F5C0658DD1C2E74C4B1A7802F0FF03BC
:102DD400002A3FF4D5AE494B1B78494B1C682DE6BD
:102DE400464B1A7802F0FF03002A7FF4C6AE444B28
:102DF4004FF480651C68A001C6E4404B1B78002B8F
:102E0400EED13E4B1B78002BF1D03D4B09951C684D
:102E1400A001B9E4002B3FF499AE01224FF0A04089
:102E240038490B6823F001030B60354B19688A405D
:102E340000EB8113C0F86424DA685201FCD485E6FF
:102E44000123274A1370A5E70023CBE4B9F1000F4F
:102E54003FF416AF334606EB0A0293ED007A27EEF1
:102E6400877AA3EC017A9342F7D109E74FF4C06E55
:102E7400204A0AEB0C061069234D244A764452F882
:102E840004BFBBF1000F19DDB9F1000F16D00146E4
:102E94000EEB0C08D8ED007A05EB8104C4ED007A42
:102EA400A1EB0B04C4F30C0405EB84042468013186
:102EB40048F8044BB045C1F30C01EBD10EF5407E4C
:102EC400BEF5C05F05F5004506F54076D7D101E7AC
:102ED400425F0120295F012018490120E8220120D6
:102EE4002D5F012000000B40704801207448012030
:102EF400C04A0120084901202E5F0120355F0120CE
:102F0400DCE2002000003050508002207C48012088
:102F1400034B01298CBF002001201960704700BFBA
:102F2400C05E0120013802289ABF024B53F82000EA
:102F34000148704758E300204CDD002010B582B0F2
:102F440007F01CFC82880446531E3F2B5DD9A94B15
:102F54001B78423B362B53D8DFE813F0790252003A
:102F64005A0252004E0252002A02520052005200EB
:102F740052005200520052005200520052005200BD
:102F8400FD015200EB015200C20152003700520011
:102F94009701520088015200B30152006A015200A5
:102FA4002B0152001C0152005200520052005200E8
:102FB4005200520052005200ED005200B300520081
:102FC40096005200850052005C00A388032B17D999
:102FD400894BDFED8A7A93ED007AB4EEE77AF1EE6D
:102FE40010FA07D4DFED867AB4EEE77AF1EE10FA40
:102FF40077FE877A01228349834BC1ED007A1A70E8
:1030040002B0BDE8104007F06FBB01687A4808F0D1
:10301400D3FB9CE77D4B1B78082BF1D8A288032AAD
:10302400EED9754ADFED7A7A92ED007A7948F4EEBA
:10303400C77A0068F1EE10FA06EE900AF8EE666AB6
:10304400754A764903EB830477FE877A01EB8401A2
:1030540002EB830316EE900AC1ED397AC3ED027ACE
:10306400FDF776FCCCE7694B1B78082BC8D8A288FF
:10307400002AC5D06049694A097803EB830302EB4F
:10308400830383F8D910BBE7604B1B78082BB7D8B0
:10309400A288032AB4D9584AB3EE047AD2ED007A4E
:1030A40087EE877A5D4C03EB830304EB830417EE0E
:1030B400101A5B48C4ED377A03F098F9C4F8E000BD
:1030C4009EE7524B1B78082B9AD8A288002A97D0E7
:1030D400494A1178002940F0E681504A003918BF66
:1030E400012103EB830302EB830383F8D81092F8E6
:1030F4007801002840F0E48192F8004192F81431FC
:1031040092F82811234392F83C410B4392F8501152
:10311400234392F864210B43134314BF0123034652
:103124005B00404A117899423FF46AAF1370FFF78D
:103134009DF940BF64E7A388072B7FF661AF2E4A51
:103144001378012B3FF65CAF517808293FF658AF4E
:10315400D2ED017AB3EE047A584201EB4104DFF870
:10316400BCC0518800F06C0202EB84022CF80210FF
:103174006C2287EE877A02FB03F303EB84030CEBE8
:10318400030417EE101A2648C4ED017A03F02EF951
:10319400A06035E7A388002B3FF432AF164B012122
:1031A4001B782148003B18BF0123204A437011704B
:1031B40026E7A388032B7FF623AF0F4B93ED007A0A
:1031C400B5EEC07AF1EE10FA00F16781F2EE0E7AF4
:1031D400B4EEE77AF1EE10FA77FE877A124BC3ED7C
:1031E400027A9B78032B7FF40BAF01220F4B1A70EA
:1031F40006E700BF3B5F0120E45E0120000020429F
:103204000000C84224E30020345F0120265F01202F
:10321400000000004CE300209C48012070220120A3
:10322400000020412E5F012014E30020305F0120C4
:10323400A388032B7FF6E4AEAD4BDFEDAE7A93EDBE
:10324400007AB4EEE77AF1EE10FA07D4DFEDAA7A49
:10325400B4EEE77AF1EE10FA77FE877AA74BC3ED66
:10326400017A9B78032B7FF4CBAEBEE7A388002BB7
:103274003FF4C6AE9E4B01211B78A048003B18BF0B
:1032840001239F4A03701170BAE6A388032B7FF6CB
:10329400B7AE974B93ED007AB5EEC07AF1EE10FA23
:1032A40000F1FE80DFED977AB4EEE77AF1EE10FAE2
:1032B40077FE877A01229449944BC1ED007A1A7003
:1032C4009EE6A388002B3FF49BAE894B1B78032B0F
:1032D4003FF696AE01218948894A837011708FE6C2
:1032E400A388002B3FF48CAE814B894A1B78003BAA
:1032F40018BF012313701378002B00F0CA80854B8C
:103304001968002900F0C58043F6FF40824B834AC8
:103314009B8803F570531BB28342A8BF034623EA7C
:10332400E373C3F3072303EB430301EB03111160BE
:1033340066E67B4B1B78022B3FF662AEA288002A1E
:103344003FF45EAE6A4A774912789BB2003A18BFDE
:103354000122CA5454E6724B1B78022B3FF650AE3E
:10336400A288032A7FF64CAE614AB3EE047AD2ED0A
:10337400007A6D4A6D4802EB8302C2ED007AC7EE13
:10338400877A17EE901A9CB2019303F02FF807EE98
:10339400900AB0EE677ABEEEE87A654A019B654909
:1033A40002EB830317EE102A41F82420186027E665
:1033B4005B4B1B780A2B3FF623AEA288032A7FF6C9
:1033C4001FAE4B4ADFED5C7A92ED007A5249F4EE7F
:1033D400C77A0868F1EE10FA06EE900AF8EE666A0B
:1033E400564A77FE877A02EB830316EE900AC3ED02
:1033F400007AFDF7ADFA03E6A388002B3FF400AE94
:103404003B4B4F4A1B78003B18BF01231370F7E571
:10341400A388032B7FF6F4AD354BB3EE047AD3EDDA
:10342400007A87EE877A474B17EE101A3F48C3EDB0
:10343400007A02F0DBFF07EE900AB0EE677ABEEE88
:10344400C27A414A414B82ED007A1860D8E5A388DC
:103454000F2B7FF6D5ADDFF804C1254C0FCCCCF88B
:103464000000CCF80410CCF80820CCF80C309CF800
:1034740000300A2B3FF6C4AD9CF8013034499CF867
:1034840000208A5C9A427FF6BBAD0122314B1A7050
:10349400B6E50022214B1A60B2E5DFED277A9DE6FE
:1034A400DFED257A06E7082B0DD09A1E052A2A4A55
:1034B4003FF614AE92F8780100283FF40FAE9FE572
:1034C400012003462DE6244A92F8144192F80001A3
:1034D400204392F82841204392F83C41204392F83B
:1034E4005041204392F8644120433FF4F7AD87E50F
:1034F400E45E01200000FA430000FA4414E30020D3
:10350400305F01200000484320E30020345F0120A5
:10351400335F0120E84A01204CE3002030490120B8
:10352400265F0120D4480120C84801200000204122
:1035340028E3002034E30020000000009C48012020
:103544002C5F0120BC4A012044E3002040E300201A
:10355400C8E20020315F0120702201205C170620A0
:1035640008B507F00BF94FF0000C294B81885A7904
:1035740083F800C0914204D35A78012A05D0022A64
:103584002CD0BDE8084007F0AFB89B78012B37D0AA
:10359400022BF6D143F6FF4C03681E48B3F9001022
:1035A4001D4A01F570531BB26345A8BF634623EA65
:1035B400E373C3F3072330F9130091801749D080D4
:1035C4000A78002ADDD0164A1268002AD9D0154993
:1035D40003EB430302EB03120A60D2E79B78012B4F
:1035E400CFD102680C491268086822F07F429042E9
:1035F400C7D00D480A6003700A680C4B1A60C0E714
:103604000368054A1B78003B18BF01231372B8E70F
:1036140064260120E4DF00204CE30020335F012016
:10362400E84A012030490120385F012048E30020A6
:1036340008B50B7803F06002202A01D0002008BDF1
:103644004A78012A2BD002F17F00C0B20328F5D8B2
:10365400823A03F01F03022A3FD8DFE802F00A028D
:103664001400012BEAD149880020090A022912D04A
:1036740008BD012BE2D14988090A0229DED1264876
:1036840006F0A8FC09E0012BD8D14988090A0229CF
:10369400D4D14FF4807006F09DFC012008BDC88889
:1036A40000F1FF3CBCF13E0FC8D8DFF878C0B1F898
:1036B40004E08CF800204A8803F01F034FEA1E211F
:1036C40052BA8CF8050015488CF801308CF80410B7
:1036D400ACF8022006F0CAFCDFE7012B0BD0022B6A
:1036E400ACD14B881B0A012BA8D10D4B03211868C0
:1036F40006F070FCD1E74988090A012907D002299C
:103704009CD1074B988800B206F064FCC5E7044BD3
:10371400187A06F05FFCC0E700C4FFFFB4DF0020A6
:103724004CE300206426012010B50B7882B013F01E
:10373400600003D11B0609D402B010BD402802D199
:103744004B78012B16D0002002B010BD4B78062B0D
:10375400F2D140F2EE334A889A42EDD1CB88184830
:10376400122B28BF12231C4606F0C8FF224603462C
:1037740014490FE08B88042B16D0052BE3D1CB889A
:103784000F488E2B28BF8E231C4606F0B7FF224617
:1037940003460D491868019308F00EF8019B9C80BC
:1037A40006F046FC0120C7E7CB880548282B28BF34
:1037B40028231C4606F0A2FF224603460349E9E7F4
:1037C400D41B062024E100206CE00020FCE0002053
:1037D400F0B591F900304A78002B83B00FDBCB8829
:1037E400DFF8F4C2013BAB4849889BB23F2B8CF80D
:1037F4000020018040F28480002003B0F0BD433AF1
:103804003C2AF9D801A353F822F000BF2B3800203A
:10381400F93600205D380020F93600206538002094
:10382400F936002085380020F9360020F9360020CA
:10383400F9360020F9360020F9360020F936002048
:10384400AF380020E3380020193900202F39002038
:10385400F9360020EF380020F9360020FB3800202C
:10386400F93600200D390020F936002015390020E2
:10387400F936002069390020F93600206D3900201E
:10388400F936002075390020F93600207D390020F2
:10389400F936002085390020F93600208D390020C2
:1038A400F9360020F9360020F9360020F9360020D8
:1038B400F9360020F9360020F9360020F9360020C8
:1038C400F9360020DD390020F93600204B3A00207B
:1038D400F93600207D3A0020F9360020933A002082
:1038E400F9360020AD3A0020C33A0020CB3A00203C
:1038F400E93A0020693B0020793B00200D38002084
:10390400654806F0B3FB012003B0F0BD634B644A85
:103914001A60644806F0F2FE0422604B19680368DA
:103924001960828006F084FBEDE74B88B3F5306FB5
:103934004FEA1321BFF460AF5B48C3F30312405C4A
:1039440090427FF659AF03F00F03032B00F28182FC
:10395400DFE813F0C301BC01B201CB01534A4F4B62
:103964001268D5E7524A4D4B12784E481A7006F049
:10397400C5FE0122494B197803681970828006F04C
:1039840057FBC0E78B780A2B3FF636AF494951F80D
:103994002330424A4348136006F0B0FE04233F4AF2
:1039A400116802681160838006F042FBABE74B8824
:1039B400092B00F06E82102B00F24B82DFE813F02B
:1039C400EA01E301D901D601D301D001CD01FA0105
:1039D400F7014902F401F1013C0238023F02CA0135
:1039E4009C01FDF797FC012106F0F4FA8BE78B7834
:1039F400022B3FF601AF3049C9E78B78022B3FF623
:103A0400FBAE2E4A9BB2D25C244BAEE72C4A234B2E
:103A14001278AAE72B4AA2E7FDF77CFD03460028AB
:103A240000F01D820121184606F0D4FA6BE7FEF778
:103A340007F8254B186807EE900AF8EE677A17EE38
:103A4400900AFDF7B9F8204B186807EE900AF8EED3
:103A5400677A17EE900AFCF77BFF01211B4B0020CD
:103A6400197006F0B7FA4EE7194A78E7194A0B4B72
:103A740012787AE7174A094B927876E7154A074B8A
:103A8400526845E7134A054B926841E7114A034BD4
:103A940052786AE7265F0120A4DF002058530120F2
:103AA40001011009D41B0620C8E20020BC4A0120F1
:103AB4002C5F01209C480120C8480120D4480120E3
:103AC400335F012024E300204CE30020345F012015
:103AD40020E3002014E300203B5F01204B88B3F572
:103AE400007F4FEA1321BFF487AEDBB2082B3FF609
:103AF40083AE4FF06C0C4FF0000E0CFB01FCAF4A90
:103B040003EB430461F3070E63F30F2E0CEB840302
:103B1400D118D35C91F801C0A94A63F3174E4B68DE
:103B24006CF31F6EA748C2F800E0536006F0E6FD90
:103B34004FF0080E84460268A14B03CB106051601D
:103B4400ACF804E006F074FADDE68B78082B3FF657
:103B540053AE9A4A03EB830302EB830393F8D83002
:103B6400974A9848137006F0C9FD0123944A1178C6
:103B740002681170838006F05BFAC4E68B78082B28
:103B84003FF63AAE904A03EB830352F823208C4B62
:103B9400BEE68B78082B3FF62FAE884A03EB8303EF
:103BA40002EB830393F8D930854ADAE78B78082B44
:103BB4003FF622AE854A03EB830352F82320804B61
:103BC400A6E6834A7E4B1278CFE68B78082B49D839
:103BD40000F09B81023B052B44D8784B93F8782165
:103BE400003A18BF01220FE74B88DAB2042A00F228
:103BF40032811B0A0C2B00F03081A3F11701D8B2DB
:103C04000229064640F229811D2B00F2268195B235
:103C1400002A00F091816F4C21782746814200F000
:103C24009481012D00F0C1816178814200F08D8181
:103C3400022D00F09C81A178814200F08681032D41
:103C440006D0F978B14200F08081042D00F07F8124
:103C54003979B14200F07981795DB14202D0002A0C
:103C640040F08F810022CFE68B78042B3FF6C4AD61
:103C74005849534ACB5C74E7574B514C1B6818683E
:103C840059689A68DB680FC44E4806F037FDD0F8CF
:103C940000E0A4F1100C0446BCE80F00CEF80C3090
:103CA4004FF01003CEF80000CEF80410CEF8082030
:103CB400A38006F0BDF926E60C2303FB0123474845
:103CC4001B01C058042106F085F91CE60C2303FBF4
:103CD400012343481B01C058F4E70C2000FB0122D8
:103CE400404B03EB02139878ECE70C2303FB01230E
:103CF4003D481B01C058E5E704203C4ADFF82CC1CD
:103D040013683B4983F4804303F47043CCF80030D8
:103D140008601368DB05FCD553689FED365A9BB2E7
:103D240007EE903ADFED346AB8EEE77ADFED335A06
:103D3400E7EE056AF3EE0B7A86EEA57A9FED306A1C
:103D440077EEC77A67EE867AFDEEE77A17EE903A59
:103D540018B2B7E72B4B1868B4E72B4B1868B1E7D8
:103D64002A4B1868AEE72A4B1868ABE7294B18684A
:103D7400A8E7294A1389917AD07A9BB2000640EACF
:103D8400014018439EE7244B9888DB8880B240EAC0
:103D9400034097E7204B18885B8880B240EA0340D1
:103DA40090E71E4B18688DE71D4B18688AE71D4B7A
:103DB400186887E71C4B186884E700BF702201204D
:103DC40058530120D41B06204C23012054230120E6
:103DD4002E5F012000E3002064E300201878012016
:103DE40014780120107801201C78012000000A407A
:103DF40000200A406740533A6ABC34BF2D93E13A2D
:103E04000000C8424CE30020104B01200C4B012061
:103E1400205301201C530120C04A0120C05E012010
:103E2400C85E0120105501200C55012000100A40E5
:103E3400052001F019FA45E7634B186842E701F0E1
:103E4400F7FA1F2896BF614B40F24C4033F810003C
:103E540038E7002036E70322D6E50122D4E55C4AA0
:103E64000090106807EE900AF8EE677A17EE900A51
:103E7400FCF7A2FE564A106807EE900AF8EE677A3D
:103E840017EE900AFCF764FD0121524A009B117061
:103E9400C8E5514A514B10881188B2F802C0090A8A
:103EA400597051881870090A9088D970918883F8DC
:103EB40002C0090AB2F806C05971D1881871090AFA
:103EC4001089D971118983F806C092F80AE092F832
:103ED4000BC018720A0A42485A7283F80AE083F83F
:103EE4000BC006F00BFC3D4BD0F800C0864607CB58
:103EF4004FF00C03CCF80000CCF80410CCF80820E8
:103F0400AEF8043006F094F8FDE4364A92F8003135
:103F140092F814C192F8281192F83C0143EA0C0378
:103F24000B4392F85011034392F864210B4313435B
:103F340014BF0122002267E52B4841780746B142AD
:103F440003D08178B1427FF47CAE02225CE53B79F8
:103F5400B3423FF487AE254B1B789BBB244B1B78A5
:103F6400012B2FD03046FEF741FB7E557AE6E178EF
:103F74008142EAD021798142E7D0A17881423FF49D
:103F840071AE042AE7D01B4A002152F82500CDE97E
:103F9400000304F0D7FDDDE9000104F079FD0121FF
:103FA400009804F0CFFD7E555CE6A1788142CCD028
:103FB400E1788142C9D03979B142C6D07978B14229
:103FC400DFD14FE604221FE5C45E01204CDF002050
:103FD4004CE30020345F0120C04A012058530120E3
:103FE400D41B06207022012000E30020355F01204D
:103FF4002E5F01203017062008B50A7802F060030E
:10400400402B32D0202B01D0002008BD4B78012B4F
:104014002FD003F17F00C0B20328F5D8823B02F011
:104024001F02022B43D8DFE803F00A021400012A1E
:10403400EAD149880020090A022912D008BD012AC0
:10404400E2D14988090A0229DED1284805F0C2FFD5
:1040540009E0012AD8D14988090A0229D4D14FF4A8
:10406400807005F0B7FF012008BDBDE80840FFF7E8
:10407400AFBBC88800F1FF3CBCF13E0FC4D8DFF8E9
:1040840078C0B1F804E08CF800304B8802F01F02CD
:104094004FEA1E215BBA8CF8050015488CF8012004
:1040A4008CF80410ACF8023005F0E0FFDBE7012ADD
:1040B4000BD0022AA8D14B881B0A012BA4D10D4B8B
:1040C4000321186805F086FFCDE74988090A01290C
:1040D40007D0022998D1074B988800B205F07AFFDF
:1040E400C1E7044B187A05F075FFBCE700C4FFFF75
:1040F400B4DF00204CE300206426012000B543F621
:10410400FF4E00F570531BB27345A8BF73460C4AAB
:10411400DFF83CC023EAE373C3F3072390803CF940
:1041240013000849D0800A7842B1074A12682AB1BC
:10413400064903EB430302EB03120A6000BD00BF10
:104144004CE30020335F0120E84A0120304901207C
:10415400E4DF00202DE9F0434FF4C67287B000215C
:10416400764807F0BBFA01254FF07E53734CC0220A
:1041740008217348A360C4F88030C4F8E030C4F860
:10418400F430C4F80831C4F81C31C4F83031C4F830
:104194004431C4F85831C4F86C31C4F88031257006
:1041A40084F8785084F8D85084F8EC5004F0F6FF82
:1041B400DFF83C82C022C8F800000821604804F0FF
:1041C400EDFF604FC022386008215D4804F0E6FF2F
:1041D4005D4EC02230600821594804F0DFFF0024FE
:1041E400DFF810925949C9F80000594805F0E4F87D
:1041F400C02304222146D8F80000DFF8FC81009493
:1042040005F090F9284605F0E3F9524A5049404632
:1042140004F0BCFA3968504F042322464046009407
:1042240004F0D6FB38464D4A494904F0AFFA3168E8
:104234004B4E042322463846009404F0C9FB304612
:10424400484A434904F0A2FA2246D9F8001004234C
:104254003046009404F0BCFB434B21460B209F6086
:10426400DE60C3E9004800F045FB404B404E93E854
:10427400070003AB83E807003E4F1846032104F010
:10428400ABFC234622463C4900953A4805F08AFD9A
:1042940000950223394A3A49FE603A4805F082FD06
:1042A400394B384A394E1361394A3A4B10465361F7
:1042B400394A3A4B1146136005F0F2FC384B394940
:1042C40039480B6005F0ECFC23462246374900953B
:1042D400374805F067FD374D0096354E364A374965
:1042E40003233748F56005F095FD364B4360FCF732
:1042F400C9F93548FCF760FC47F6FF71334B344A83
:104304009C80D980127832B1324A12681AB132498B
:1043140002F534620A6001203049314A08701B6892
:10432400304C314D1360656004F08AF902222F4B42
:104334001A6005F0D7FD07B0BDE8F08370220120B4
:10434400E0E200204C53012050530120A0DF002064
:1043540008E30020F8E2002028540120F0E20020C5
:1043640090540120E8E200203017062060E000208D
:10437400F93E00200C26012055E1002098DF0020A2
:104384008FE1002024260120112E0020252E00205C
:104394003C4A01203135002050260120D4DF002082
:1043A400C4DF00203C260120704A0120C9E100201E
:1043B400CC5E0120D13600208CDF00204CE10020AF
:1043C40038E100202936002000803B474CE30020E0
:1043D400335F0120E84A012030490120385F012081
:1043E40048E3002008490120702A012000200A40E7
:1043F4004853012054530120C05301204FF4807CC2
:104404000C4B00B553F8202003EB8003C00082F06E
:10441400400200F1804003F5805E02F0C00200F526
:10442400203003F54053CEF800204160C3F800C0AB
:1044340000BD00BF048003404FF0000300B543EC0F
:10444400440043EC40004FF0050E4FF4807C0C4BCD
:10445400C20053F8201003EB800081F0400102F108
:10446400804303F5203301F0C00200F5805100F5CC
:1044740040500A60C3F804E0C0F800C000BD00BFAB
:10448400048003400FB400B5084883B003F0A0FFD4
:10449400049B3BB105A91846019103F057FE04485B
:1044A40003F096FF012003F069FE00BF48D9002005
:1044B4006CDC002008B50148FFF7E4FF58D9002060
:1044C400EFF3108072B6064BD3E8CF1F0122002908
:1044D400FAD1C3E8412F0029F6D1BFF35F8F7047AB
:1044E400771706200023034AC2E88F3F80F3108821
:1044F400704700BF7717062070B51646EFF3108497
:1045040072B6DFF848E0DEE8CF2F0123002AFAD1A3
:10451400CEE8423F002AF6D1BFF35F8F012301F0BA
:10452400070CCA0803FA0CF310F802C01CEA0305CE
:1045340008D14CEA030C00F802C0CEE88F5F84F384
:10454400108870BD3046FFF79DFF00BF7717062027
:10455400F8B50F461946EFF3108672B61C4DD5E830
:10456400CF4F0123002CFAD1C5E8443F002CF6D1EB
:10457400BFF35F8F8A421BD8012402E001329142CB
:1045840022D3D30810F803E002F0070C04FA0CFC61
:104594001EEA0C0FF2D14EEA0C0E00F803E01046AE
:1045A4000023C5E88F3F86F31088984207DBF8BDE7
:1045B4000023C5E88F3F86F310884FF0FF30002FAB
:1045C400F5D00698FFF75EFF4FF0FF30E8E700BF35
:1045D40077170620044A1078431CDBB2182B28BF37
:1045E40010231370704700BF79E300204FF0E022DE
:1045F400936843F000539360704700BF0021044B5D
:1046040003F12002C3E88F1F01339342FAD17047AC
:104614006C170620024B00221844C0E88F2F704705
:104624006C1706204FF08030044B05491A460433BA
:104634008B421060FAD162B6704700BF00E400E01C
:1046440034E400E0012300F01F029340400941B12B
:10465400800000F1604000F56140C0F880310360E3
:104664007047024A203042F82030704700E100E0F1
:104674000123064A410952F8212000F01F0083401B
:10468400134214BF01200020704700BF00E100E086
:1046940010B582B0EFF3108472B6164BD3E8CFCFC7
:1046A4000122BCF1000FF9D1C3E84C2FBCF1000F7B
:1046B400F4D1BFF35F8F104A10309268DFF83CC02A
:1046C40052F82020624508D0914206D0CDE900017D
:1046D40000F048FF0199074B0098074A926842F896
:1046E4002010BFF35F8F0022C3E88F2F84F310885C
:1046F40002B010BD7517062000ED00E01101001096
:104704002DE9F04F06468A46154683B0EFF310882C
:1047140072B6714FD7E8CF2F0123002AFAD1C7E828
:10472400423F002AF6D1BFF35F8F6C4991F9002014
:10473400002A7BDB6A4802EB420400EB840393F813
:1047440006C0103681F800C06649A40089684FEAA3
:10475400420B51F826E0AEEB00012F292ED9624915
:104764008E4540F0848043F0010E604B02340444D3
:10477400043B1B1BC3F34A036FEAC3434FF42141B9
:104784006FEAD3435A4420F8221000EB820253808C
:104794004BF601539380FF23D571C2F808A093719F
:1047A400504B9B6843F826E0BFF35F8F0023C7E8B4
:1047B4008F3F88F3108803B0BDE8F08F2EF0010C12
:1047C4009CF80710A9425AD9B14601941E4603E049
:1047D400CB79AB4230D98C469CF9064004EB4401BA
:1047E400002C00EB8101F3DA00944BF601543346BC
:1047F4004E460CF10409043BA3EB0903C3F34A033B
:104804006FEAC3436FEAD343ACF80430384B0BEB85
:1048140002018CF8062040F82130009B00EB810255
:1048240094809371D571C2F808A0B9E700F09AFE9C
:104834002A4991F900207DE76FF007010094019C5B
:1048440033460C1B6146241A019431F8044F4E463A
:1048540044F30A04023401EB4404894601990C44EC
:10486400C4F34A046FEAC4446FEAD444C3E7CDE90D
:10487400002300F077FEDDE90023194873E71B4AA3
:10488400A11CDD710144043A251D521A0544ACF102
:104894000401491BC1F34A016FEAC141C2F34A0250
:1048A4006FEAC2426FEAD1414FF4214E6FEAD2421D
:1048B40099800F4920F804E05A804AF6AA256246F6
:1048C400121A524155432D0DC3F808A09D7143F0AF
:1048D400010ECCF8001063E775170620325F012043
:1048E4007CE3002000ED00E011010010ACE30020A7
:1048F400014880474FF0FF0C20F0030303F16043AD
:1049040003F5644300F003001A68C0000CFA00FCCD
:1049140022EA0C0281400A431A607047F0B504464B
:1049240083B0EFF30583DBB29C46EFF3108572B6D8
:10493400DFF894E0DEE8CF2F0123002AFAD1CEE895
:10494400423F002AF6D1BFF35F8F1B4E4AF6AA23DB
:10495400B2681A4852F82C2044F00107019222460A
:10496400121A524153431B0D019A59B2BA4214D040
:104974000246002392F906C00C328C4512D0013352
:10498400042BF7D10E4B002218781970A071CEE8D1
:104994008F2F85F3108803B0F0BDB368094A43F83C
:1049A4002C20EFE7FF2203EB430300EB83039A7110
:1049B4004BF601529A80E5E700ED00E07CE300202D
:1049C400325F01201101001075170620014B0B44C2
:1049D400036070476C17062070B5114C114DAC4242
:1049E4001CD2FF260BE0FFF7F5FD01462046FFF73A
:1049F400EDFFA680BFF35F8F0834AC420ED223686C
:104A0400002BF0D1FFF7E6FD01462046FFF7DEFF5D
:104A14002671BFF35F8F0834AC42F0D370BD00BF82
:104A240068EA002078EA00200D4B1A68EFF3108141
:104A340072B6D2E8CFCF0120BCF1000FF9D1C2E8A1
:104A44004C0FBCF1000FF4D1BFF35F8F00221B6841
:104A5400C3E88F2F81F3108840BF002000217047E6
:104A6400B8530120000000002DE9F04F2DED028B1A
:104A740085B0EFF30583DBB2103B9A0818BF01221F
:104A84004FF0010103F0030E18BFA94CA94B08BF56
:104A9400A94C0EEB820253F8225001FA0EF204F5EF
:104AA40041539FEDA18BF34602925A602FE0AB88ED
:104AB400190440F19480AB79002B40F0DE80B5F905
:104AC4000860002EC0F21C816B6906EB460603EBFE
:104AD400C603D3E90267B7F1FF3F08BFB6F1FF3F52
:104AE4000ED004EB8B01A36A0A69D21AF31A93421B
:104AF40005D30123226A03FA0BF3134200D10E619A
:104B0400204600F0AFFAB042B941C0F2F980B5F9DD
:104B14000860029B002EE363C9DBD5F8149006EB12
:104B2400460A09EBCA07BB682046D7F80C800193F4
:104B340000F098FA019B984271EB0801B7DBB8F1D9
:104B4400000FC0F2C080D7E904317C4A934200F0E0
:104B5400F7807A88B5F9080092B242EA0040984793
:104B640002460B4652EA030100F0AD80002B80F2AE
:104B7400CD800199B1EB020E68EB030839F93A30A4
:104B8400C7E902E8002B92DB686903EB430200EB00
:104B9400C202D2E90271BE4578EB010C4FEA43022E
:104BA40085DBAC462CF8083F06E003EB430100EB41
:104BB400C1015A00D1E90271BE4578EB01011A44E2
:104BC40005DB30F9323000EBC20C002BEDDA29F8AA
:104BD4003A30ACF80060AB8819043FF56CAF2B6930
:104BE400EFF3108272B6D3E8CF0F01210028FAD177
:104BF400C3E8401F0028F6D1BFF35F8F4FF6FF765E
:104C0400A8880023296900B2AE80C1E88F3F82F3EF
:104C140010889842FFF64FAF0746A1466E6905F12A
:104C24000808B5F9083007EB470E002BC44606EB1D
:104C3400CE0215DBD2E90240AA46019704E036F918
:104C440035309446002B09DB03EB430506EBC50224
:104C5400D2E90271BC4270EB0101F0DA5546019FC2
:104C6400ACF8007036F93E7026F83E30002FD8DAE2
:104C7400AB794C46002B3FF422AF0023AB71B5F95E
:104C84000860721C33463BD0686905F1080E03E0E6
:104C94008E465A1C3FF415AF03EB430200EBC201EE
:104CA4004F889C463F0430F93230F1D5664581ED9A
:104CB400028BEED0AEF800302989664620F8321017
:104CC400A5F808C0E5E739F83A302B812B69EFF3F2
:104CD400108272B6D3E8CF0F01210028FAD1C3E8BD
:104CE400401F0028F6D1BFF35F8F6B88296929F82C
:104CF4003A3000236E80C1E88F3F82F31088D6E6F5
:104D040040BF05B0BDEC028BBDE8F08F2046039395
:104D1400019200F0A7F9019A039B10EB020E43EBFA
:104D240001082BE7AFF30080FFFFFFFFFFFFFFFF4A
:104D340000800B402853012000000B4069490020EB
:104D440008460B69039198470028BCD00399D1E920
:104D5400002307E710B5204C82B0236933B10A2140
:104D64001E4802B0BDE81040FFF730BE03211C48C6
:104D7400019300F065F91A48E060FFF72BFC4FF04F
:104D8400030C184984F800C001444FF050404FF61A
:104D9400FF724FF00F0C21611349019BA160006861
:104DA4006169A280A4F802C0607021F813200C335A
:104DB400C02B02F10102F8D10C4B094ADC60082433
:104DC400032014620A49FFF763FC01210320FFF763
:104DD40039FC084A1464C2E7C4E30020B853012034
:104DE40000000B406C170620FFFF10002853012021
:104DF4006949002000200B40F0B516461F460269A1
:104E04000346EFF3108072B6D2E8CF4F0121002C95
:104E1400FAD1C2E8441F002CF6D1BFF35F8FB3F977
:104E240002101D69002945DBD3F814E001EB4102AF
:104E34003EF832400EEBC20C5C800024C5E88F4F74
:104E440080F3108805983546CCF8100006983E4645
:104E5400CCF81400BCF80200CCE902560130C0F3CF
:104E64000E00012838BF0120ACF8020040EA0140DE
:104E7400D3F810C0EFF3108572B6DCE8CF7F0126BB
:104E8400002FFAD1CCE8476F002FF6D1BFF35F8F24
:104E9400B3F804C02EF832C099801A69C2E88F4F63
:104EA40085F3108801211C78DA68A14002F50153CA
:104EB4005960F0BD0023C5E88F3F80F310884FF0A0
:104EC400FF30F0BD03464089B0EB214F3ADD58690D
:104ED4000A1402EB420210B5D3F810C000EBC20072
:104EE400EFF3108E72B6DCE8CF4F0122002CFAD11A
:104EF400CCE8442F002CF6D1BFF35F8F428889B2EF
:104F040092B28A4207D000221B69C3E88F2F8EF326
:104F14001088002010BD6FEA42426FEA524242807C
:104F24000121002218699971C0E88F2F8EF310882F
:104F340093F800C0DA68084602F5015301FA0CF14F
:104F4400596010BD00207047EFF30582D2B282B1E0
:104F5400384B5A6A8A4202D200221046704714BF64
:104F6400012200229B6A834228BF42F001021046BC
:104F7400704770B584B003922F4A0646D3681578FB
:104F840018460C46029300F06DF8029B05F1040CE0
:104F940053F82CC0039AACEB000C301A64EB0101FB
:104FA400604571F100010FDB20BF224B596AA14219
:104FB40007D314BF012200229B6AB34228BF42F0E8
:104FC4000102104604B070BD029200F053F886420C
:104FD40064EB01010029029A1BDB18492346CDE941
:104FE400001215483246FFF707FF011E11DD114B71
:104FF4005A6AA2421CD39B6AB34217D30E48FFF7E6
:1050040061FF0C4B5A6AA242D3D20022104604B06C
:1050140070BD084B5A6AA242F7D3121B18BF012273
:105024009B6AB34228BF42F00102CAE7A242E5D11B
:1050340020BFE3E700000B40C4E30020294900201F
:1050440010B4054B054C064AA04214BF1846581C20
:1050540010BCFFF751BA00BFD848012000800B40B4
:1050640068D900200346416A0A46986A596A8A4206
:10507400FAD17047034B596A0A46986A596A9142B1
:10508400FAD1704700000B4000B58E46154A536AAA
:105094009C46916A536A6345FAD1401853EB0E0358
:1050A4004FF0000228BF0122BAB10E4B5B6A5A1CB2
:1050B40008BF184608D04FF0FF33184609494A6A1A
:1050C4009A42FCD39A4207D1064A02E0516A9942B5
:1050D40002D1916A8142F9D300BD024A526A9342D5
:1050E400ECD8EFE700000B40224B98420AD84FF46B
:1050F4007A73214A03FB00F0916A936A5B1A98421F
:10510400FBD870474FF47A7300B5DFF86CC0A0FB8E
:105114000301DCF824201346DCF828E0DCF8242022
:105124009A42F8D110EB0E034A414FF0000C28BF0D
:105134004FF0010CBCF1000F12D10F49496A8A42A9
:1051440003D90D48416A9142FCD3914207D10A49DF
:1051540002E0486A904202D1886A9842F9D300BDBD
:10516400054B5A6A531C08BF1346F0D04FF0FF3268
:105174001346E6E79BC4200000000B4000EB400C04
:105184004FEA8C0C0CF1804C70B50CF5803C049CFF
:105194001E46DCF80430A34238BF2346A0F10404C1
:1051A400E4B238BFCCF80430012C2DD94FF400659B
:1051B400274B0CF5405ECEF8005053F820E0BEF1CA
:1051C400000F16D1DCF800E0012C8EEA421202F046
:1051D400E0020CF5805ECEF800202AD94FF400627C
:1051E40043F820600CF500531A60049BCCF804309B
:1051F40070BD5D69B5FBFEFE0EF1010E0EEB4E0EA9
:10520400BEF1030EFCD2DDE70129CFD103240CF556
:1052140040531C60DCF80830DB07FBD5DCF80030B9
:105224000CF5805E83EA421303F0E003CEF800300D
:10523400074B0122DCF800404C4004F00304CEF894
:10524400004002FA01F1DCF808200A42FBD0C5E76D
:10525400E04801204FF4803C00B583B0CDF800C095
:10526400FFF78CFF03B000BD014B53F820007047DB
:10527400E0480120F0B54FF48034174601220E4671
:10528400054683B011460520124B0094FFF776FFC4
:10529400334607FB06F62A4601210F48009700F023
:1052A4005DF8B5FBF6F50022022104200B4B0094B7
:1052B400FFF764FF2B460022012105200094FFF72D
:1052C4005DFF022200210620024B0094FFF756FFE7
:1052D40003B0F0BD006CDC0200000540001BB70009
:1052E4002DE9F047884691469A46184D184E194FB5
:1052F400194CB54207D9A5F53705A5F5D855BD42D2
:10530400F7D1002019E007222919964602FB02FC76
:1053140004E0BEF1010EACEB020C10D0B1FBFCF3C7
:105324008342F6D10CFB1013002BF2D10120C8F8F4
:105334000010C9F80020CAF800E0BDE8F087013A7F
:10534400E3D1A5F53705A5F5D855D2E780A82DB842
:1053540080F8A932807D06DE8017B42C10B5029C3B
:105364008E464FEA043C4CEA034C1C4BB3FBF1F36E
:105374000168B2FBF3F4002920DB194A194B90426F
:1053840014BF4FF480424FF4004217491A6003F5EA
:1053940080531A608B6832EA0303FBD1212200F5A3
:1053A40040530433C0F800E084601A600268002AA5
:1053B400FCDA0822C0F80CC01A6010BD036803F0C0
:1053C4003F037345D9D18368C3F30B03A342D4D1FC
:1053D400C36803F4EE236345CFD110BD001BB700AF
:1053E4000080054000200240000002400A4B0B49A7
:1053F4000B4A5960D3681904FCD40A4BD26843EAB7
:1054040000130949534009481940054AC160D3684B
:105414001B04FCD4704700BF002010400020FE5A3B
:10542400000010400000FE5AF001FE5A0010104027
:10543400024BD868C0F30410704700BF000010404E
:10544400024A034B12685A60704700BFE04A0120C9
:1054540000800D4000B54FF0804E184B184ADFF81D
:105464006CC0DA61174A03F54053C3F800E0C2F890
:1054740008C04FF0E062F1B1A3F580531A6020B97F
:105484004FF00042104B1A6000BD4FF47A7303FBD7
:1054940000F0B0F1807F2ABF6FF07F4303461846C7
:1054A4004FF08042DFF828C00449CCF80030064BA6
:1054B40048601A6000BD1A60E1E700BF00800D403B
:1054C4002131B76A00A0014000A00D40F3FFFF01A5
:1054D400E04A0120012300EB4000800000F18040FD
:1054E40000F5841041600360704700BF0023DB8A2D
:1054F400002242E800F2520201D41021184704218C
:10550400184700BF034AD2F82838002BFBD0BFF35A
:105514005F8F704700000E400021044B044ABFF324
:105524005F8F43F8041B9342F9D170470C080E4077
:105534002C080E404FF42A6C4FF48D70054A064B2C
:105544000649C2F800C0D06019605368002BFCDA29
:10555400704700BF0080044000A0044000B0FA007F
:10556400704700BF08B50148FEF78CFF8CD90020B6
:1055740038B5054C054DAC4204D254F8043B984769
:10558400AC42FAD338BD00BF78EA0020B8EA002064
:1055940038B5054C054DAC4204D254F8043B984749
:1055A400AC42FAD338BD00BFA4EA0020B8EA002018
:1055B4000648DFF828C0064B064A0749C0F800C071
:1055C4001A608B6832EA0303FBD170470020024063
:1055D40000300240F6FFF303000002407F3BEFEF90
:1055E400044BDB6CB3F5004F03D14FF48022024B24
:1055F400DA64704700001150002011504FF0E0228F
:10560400044BD2F8881D0B43C2F8883D10EE3004D9
:10561400704700BF030330006FF06041044B054A3C
:1056240019609368DB4333F06043FAD1704700BFDD
:10563400003002400000024010B545F25320FFF74D
:1056440055FFBDE8104003460420184710B545F245
:105654005320FFF74BFFBDE81040034601201847D5
:10566400FEF7CCBF70B50D490D4D0E4E6D1AAC1042
:10567400442C224628BF44223046920006F09CF86F
:10568400B5F5867F07D8331F074A2B440134442CD1
:1056940043F8042FFAD1054B9E6070BD0000001042
:1056A40010010010000000201101001000ED00E0C6
:1056B400002370B52B4C82B0C4F88430FFF73AFF56
:1056C4000122294BDA63636C012BFCD10321264AA6
:1056D400244B11639C6B012CFCD102260525214629
:1056E4000523224A22480096FFF738FE21462B461E
:1056F400204A21480095FFF731FE0022042031465C
:105704001E4BFFF7A7FD2146284600221C4BFFF73E
:10571400A1FD0022082011461A4BFFF79BFD002231
:1057240009201146174BFFF795FD0022062011466C
:10573400134BFFF78FFD0022114B07201146FFF793
:1057440089FD0420FFF790FD00240F4BA3FB0035D7
:10575400AD0CE0B229460134FFF7BCFE062CF8D1AB
:1057640002B070BD0000014000300140002F6859B4
:1057740000000540008C864700800540001BB700F0
:1057840080D1F008006CDC0283DE1B4386B003B4D6
:1057940051FC0804CDE9020151FC0904CDE90401DE
:1057A40051EC0A04CDE9060103BCF047BDE8005002
:1057B4004EEC00C4BDE800504EEC01C4BDE80050FE
:1057C4004EEC02C400BD000000B5FFF7DFFF02E0AD
:1057D40010FE30F4F8D441EC100443EC112400EE34
:1057E400010410EE010480EE200451EC1004704713
:1057F40000B5FFF7CBFF02E010FE30F4F8D441EC23
:10580400100443EC112400EE010410EE210480EE98
:10581400200451EC3004704700B5FFF7B7FF02E0F5
:1058240010FE30F4F8D410B541EC100443EC11240C
:1058340051EC040453EC0524A0FB024C5FF0000E71
:10584400E0FB03CEE1FB02CE4CEC20440024E1FB60
:1058540003E444EC30E480EE200451EC5004BDE851
:105864001040704700B5FFF791FF02E010FE30F4DE
:10587400F8D441EC100443EC112451EC2104A0FBB6
:1058840001126FEA820252FB100052FB12F252FB29
:105894001000A0EBD07C53EC04245CFB13F153EC1C
:1058A4001524A1FB022001FB030053EC4424A2EBCA
:1058B400000050FB1CF24FEA111312EB017043EB92
:1058C400E27140EA515020EA915020F0070053EC75
:1058D4007524A0FB023C53EC752400FB03CC01FBB4
:1058E40002CC53EC0424ACEB824C40EA5C70A0F193
:1058F400010041EC400480EE200451EC7004704738
:1059040000B5FFF743FF02E010FE30F4F8D441EC99
:10591400100480EE220410EEB204704700B5FFF7C5
:1059240035FF02E010FE30F4F8D440EC700400EED1
:10593400010410EE210480EE200451EC3004704781
:1059440000B5FFF723FF02E010FE30F4F8D440EC7A
:10595400600400EE010410EE210480EE200451ECFA
:105964003004704700B5FFF711FF02E010FE30F479
:10597400F8D441EC800400EE010410EE010480EE42
:10598400400410EE1304704700B5FFF7FFFE02E079
:1059940010FE30F4F8D441EC800400EE010410EE63
:1059A400010480EE400410EE3304704700B5FFF7A5
:1059B400EDFE02E010FE30F4F8D441EC100443ECA8
:1059C400112400EE010410EE3004C0F3007070479F
:1059D40000B5FFF7DBFE02E010FE30F4F8D443EC30
:1059E400102441EC110400EE010410EE30F48CBFDD
:1059F40001200020704700BF00B5FFF7C7FE02E09A
:105A040010FE30F4F8D443EC102441EC110400EE01
:105A1400010410EE30F42CBF01200020704700BFB9
:105A240000B5FFF7B3FE02E010FE30F4F8D441EC09
:105A3400100443EC112400EE010410EE30F42CBFEA
:105A440001200020704700BF00B5FFF79FFE02E071
:105A540010FE30F4F8D441EC100443EC112400EEB1
:105A6400010410EE30F48CBF01200020704700BF09
:105A7400404261EB410140F2F334B1FA81F20C2A65
:105A84000CD2153211FA02F3C2F12002D04021FAED
:105A940002F12244584141EB0251704769B1C2F10D
:105AA4002B0230FA02F3C2F12002914090401943D4
:105AB400A4EB020201EB0251704701004FF0000019
:105AC400A4F12004D9D17047012767F31F5117FAB5
